{
  "_format": "hh3-artifact-1",
  "contractName": "RoomFactory",
  "sourceName": "contracts/RoomFactory.sol",
  "abi": [
    {
      "anonymous": false,
      "inputs": [
        {
          "indexed": true,
          "internalType": "address",
          "name": "roomAddress",
          "type": "address"
        },
        {
          "indexed": true,
          "internalType": "address",
          "name": "creator",
          "type": "address"
        },
        {
          "indexed": false,
          "internalType": "string",
          "name": "exerciseType",
          "type": "string"
        },
        {
          "indexed": false,
          "internalType": "uint256",
          "name": "stakeAmount",
          "type": "uint256"
        },
        {
          "indexed": false,
          "internalType": "uint256",
          "name": "duration",
          "type": "uint256"
        },
        {
          "indexed": true,
          "internalType": "uint256",
          "name": "roomId",
          "type": "uint256"
        }
      ],
      "name": "RoomCreated",
      "type": "event"
    },
    {
      "inputs": [
        {
          "internalType": "string",
          "name": "exerciseType",
          "type": "string"
        },
        {
          "internalType": "uint256",
          "name": "stakeAmount",
          "type": "uint256"
        },
        {
          "internalType": "uint256",
          "name": "duration",
          "type": "uint256"
        },
        {
          "internalType": "string",
          "name": "exerciseConfig",
          "type": "string"
        }
      ],
      "name": "createRoom",
      "outputs": [
        {
          "internalType": "address",
          "name": "roomAddress",
          "type": "address"
        },
        {
          "internalType": "uint256",
          "name": "roomId",
          "type": "uint256"
        }
      ],
      "stateMutability": "payable",
      "type": "function"
    },
    {
      "inputs": [],
      "name": "getAllActiveRooms",
      "outputs": [
        {
          "internalType": "uint256[]",
          "name": "",
          "type": "uint256[]"
        }
      ],
      "stateMutability": "view",
      "type": "function"
    },
    {
      "inputs": [
        {
          "internalType": "uint256",
          "name": "roomId",
          "type": "uint256"
        }
      ],
      "name": "getRoomInfo",
      "outputs": [
        {
          "components": [
            {
              "internalType": "address",
              "name": "roomAddress",
              "type": "address"
            },
            {
              "internalType": "address",
              "name": "creator",
              "type": "address"
            },
            {
              "internalType": "string",
              "name": "exerciseType",
              "type": "string"
            },
            {
              "internalType": "uint256",
              "name": "stakeAmount",
              "type": "uint256"
            },
            {
              "internalType": "uint256",
              "name": "duration",
              "type": "uint256"
            },
            {
              "internalType": "uint256",
              "name": "createdAt",
              "type": "uint256"
            },
            {
              "internalType": "bool",
              "name": "active",
              "type": "bool"
            }
          ],
          "internalType": "struct RoomFactory.RoomInfo",
          "name": "",
          "type": "tuple"
        }
      ],
      "stateMutability": "view",
      "type": "function"
    },
    {
      "inputs": [
        {
          "internalType": "address",
          "name": "user",
          "type": "address"
        }
      ],
      "name": "getUserRooms",
      "outputs": [
        {
          "internalType": "uint256[]",
          "name": "",
          "type": "uint256[]"
        }
      ],
      "stateMutability": "view",
      "type": "function"
    },
    {
      "inputs": [],
      "name": "nextRoomId",
      "outputs": [
        {
          "internalType": "uint256",
          "name": "",
          "type": "uint256"
        }
      ],
      "stateMutability": "view",
      "type": "function"
    },
    {
      "inputs": [
        {
          "internalType": "uint256",
          "name": "",
          "type": "uint256"
        }
      ],
      "name": "rooms",
      "outputs": [
        {
          "internalType": "address",
          "name": "roomAddress",
          "type": "address"
        },
        {
          "internalType": "address",
          "name": "creator",
          "type": "address"
        },
        {
          "internalType": "string",
          "name": "exerciseType",
          "type": "string"
        },
        {
          "internalType": "uint256",
          "name": "stakeAmount",
          "type": "uint256"
        },
        {
          "internalType": "uint256",
          "name": "duration",
          "type": "uint256"
        },
        {
          "internalType": "uint256",
          "name": "createdAt",
          "type": "uint256"
        },
        {
          "internalType": "bool",
          "name": "active",
          "type": "bool"
        }
      ],
      "stateMutability": "view",
      "type": "function"
    },
    {
      "inputs": [
        {
          "internalType": "address",
          "name": "",
          "type": "address"
        },
        {
          "internalType": "uint256",
          "name": "",
          "type": "uint256"
        }
      ],
      "name": "userRooms",
      "outputs": [
        {
          "internalType": "uint256",
          "name": "",
          "type": "uint256"
        }
      ],
      "stateMutability": "view",
      "type": "function"
    }
  ],
  "bytecode": "0x6080604052348015600e575f5ffd5b506124d08061001c5f395ff3fe60806040526004361061006e575f3560e01c80634ec189e31161004c5780634ec189e3146100eb5780636790d2b51461010c578063827bc52e14610138578063b01e79611461016a575f5ffd5b806307a52cab146100725780631bae0ac81461009a57806327b612d1146100cc575b5f5ffd5b34801561007d575f5ffd5b5061008760025481565b6040519081526020015b60405180910390f35b3480156100a5575f5ffd5b506100b96100b4366004610846565b610189565b604051610091979695949392919061088b565b3480156100d7575f5ffd5b506100876100e63660046108f9565b61025a565b3480156100f6575f5ffd5b506100ff610285565b6040516100919190610921565b348015610117575f5ffd5b5061012b610126366004610846565b6103c1565b6040516100919190610963565b61014b610146366004610a1c565b61050d565b604080516001600160a01b039093168352602083019190915201610091565b348015610175575f5ffd5b506100ff610184366004610a9e565b6107d0565b5f602081905290815260409020805460018201546002830180546001600160a01b039384169492909316926101bd90610abe565b80601f01602080910402602001604051908101604052809291908181526020018280546101e990610abe565b80156102345780601f1061020b57610100808354040283529160200191610234565b820191905f5260205f20905b81548152906001019060200180831161021757829003601f168201915b505050506003830154600484015460058501546006909501549394919390925060ff1687565b6001602052815f5260405f208181548110610273575f80fd5b905f5260205f20015f91509150505481565b60605f60025467ffffffffffffffff8111156102a3576102a3610af6565b6040519080825280602002602001820160405280156102cc578160200160208202803683370190505b5090505f805b600254811015610329575f8181526020819052604090206006015460ff1615610321578083838151811061030857610308610b0a565b60209081029190910101528161031d81610b1e565b9250505b6001016102d2565b505f8167ffffffffffffffff81111561034457610344610af6565b60405190808252806020026020018201604052801561036d578160200160208202803683370190505b5090505f5b828110156103b95783818151811061038c5761038c610b0a565b60200260200101518282815181106103a6576103a6610b0a565b6020908102919091010152600101610372565b509392505050565b61040f6040518060e001604052805f6001600160a01b031681526020015f6001600160a01b03168152602001606081526020015f81526020015f81526020015f81526020015f151581525090565b5f8281526020818152604091829020825160e08101845281546001600160a01b03908116825260018301541692810192909252600281018054929391929184019161045990610abe565b80601f016020809104026020016040519081016040528092919081815260200182805461048590610abe565b80156104d05780601f106104a7576101008083540402835291602001916104d0565b820191905f5260205f20905b8154815290600101906020018083116104b357829003601f168201915b505050918352505060038201546020820152600482015460408201526005820154606082015260069091015460ff16151560809091015292915050565b5f5f8534146105635760405162461bcd60e51b815260206004820152601e60248201527f4d757374207374616b652074686520726571756972656420616d6f756e74000060448201526064015b60405180910390fd5b5f85116105b25760405162461bcd60e51b815260206004820152601f60248201527f4475726174696f6e206d7573742062652067726561746572207468616e203000604482015260640161055a565b866105f85760405162461bcd60e51b8152602060048201526016602482015275115e195c98da5cd9481d1e5c19481c995c5d5a5c995960521b604482015260640161055a565b60028054905f61060783610b1e565b9190505590505f34338a8a8a8a8a8a60405161062290610839565b6106329796959493929190610b6a565b6040518091039082f090508015801561064d573d5f5f3e3d5ffd5b5090508092506040518060e00160405280846001600160a01b03168152602001336001600160a01b031681526020018a8a8080601f0160208091040260200160405190810160405280939291908181526020018383808284375f92018290525093855250505060208083018b905260408084018b90524260608501526001608090940184905286835282825291829020845181546001600160a01b03199081166001600160a01b03928316178355928601519482018054909316941693909317905582015160028201906107219082610c07565b50606082015160038201556080820151600482015560a0820151600582015560c0909101516006909101805460ff1916911515919091179055335f818152600160208181526040808420805493840181558452922001849055518391906001600160a01b038616907f7af20cc53130e87220edef1cf71ba6efe1a99424bbd7d39e66e95b8aa1a2da06906107bc908e908e908e908e90610cc2565b60405180910390a450965096945050505050565b6001600160a01b0381165f9081526001602090815260409182902080548351818402810184019094528084526060939283018282801561082d57602002820191905f5260205f20905b815481526020019060010190808311610819575b50505050509050919050565b6117b280610ce983390190565b5f60208284031215610856575f5ffd5b5035919050565b5f81518084528060208401602086015e5f602082860101526020601f19601f83011685010191505092915050565b6001600160a01b0388811682528716602082015260e0604082018190525f906108b69083018861085d565b90508560608301528460808301528360a083015282151560c083015298975050505050505050565b80356001600160a01b03811681146108f4575f5ffd5b919050565b5f5f6040838503121561090a575f5ffd5b610913836108de565b946020939093013593505050565b602080825282518282018190525f918401906040840190835b8181101561095857835183526020938401939092019160010161093a565b509095945050505050565b602080825282516001600160a01b0390811683830152908301511660408083019190915282015160e060608301525f906109a161010084018261085d565b905060608401516080840152608084015160a084015260a084015160c084015260c0840151151560e08401528091505092915050565b5f5f83601f8401126109e7575f5ffd5b50813567ffffffffffffffff8111156109fe575f5ffd5b602083019150836020828501011115610a15575f5ffd5b9250929050565b5f5f5f5f5f5f60808789031215610a31575f5ffd5b863567ffffffffffffffff811115610a47575f5ffd5b610a5389828a016109d7565b9097509550506020870135935060408701359250606087013567ffffffffffffffff811115610a80575f5ffd5b610a8c89828a016109d7565b979a9699509497509295939492505050565b5f60208284031215610aae575f5ffd5b610ab7826108de565b9392505050565b600181811c90821680610ad257607f821691505b602082108103610af057634e487b7160e01b5f52602260045260245ffd5b50919050565b634e487b7160e01b5f52604160045260245ffd5b634e487b7160e01b5f52603260045260245ffd5b5f60018201610b3b57634e487b7160e01b5f52601160045260245ffd5b5060010190565b81835281816020850137505f828201602090810191909152601f909101601f19169091010190565b6001600160a01b038816815260a0602082018190525f90610b8e908301888a610b42565b8660408401528560608401528281036080840152610bad818587610b42565b9a9950505050505050505050565b601f821115610c0257805f5260205f20601f840160051c81016020851015610be05750805b601f840160051c820191505b81811015610bff575f8155600101610bec565b50505b505050565b815167ffffffffffffffff811115610c2157610c21610af6565b610c3581610c2f8454610abe565b84610bbb565b6020601f821160018114610c67575f8315610c505750848201515b5f19600385901b1c1916600184901b178455610bff565b5f84815260208120601f198516915b82811015610c965787850151825560209485019460019092019101610c76565b5084821015610cb357868401515f19600387901b60f8161c191681555b50505050600190811b01905550565b606081525f610cd5606083018688610b42565b602083019490945250604001529291505056fe60806040526040516117b23803806117b283398101604081905261002291610188565b8234146100845760405162461bcd60e51b815260206004820152602660248201527f43726561746f72206d757374207374616b652074686520726571756972656420604482015265185b5bdd5b9d60d21b606482015260840160405180910390fd5b5f80546001600160a01b0319166001600160a01b03871617905560016100aa85826102a2565b506002839055600382905560066100c182826102a2565b504260048190556100d390839061035c565b60055550506007805460ff1916905550610381915050565b634e487b7160e01b5f52604160045260245ffd5b5f82601f83011261010e575f5ffd5b81516001600160401b03811115610127576101276100eb565b604051601f8201601f19908116603f011681016001600160401b0381118282101715610155576101556100eb565b60405281815283820160200185101561016c575f5ffd5b8160208501602083015e5f918101602001919091529392505050565b5f5f5f5f5f60a0868803121561019c575f5ffd5b85516001600160a01b03811681146101b2575f5ffd5b60208701519095506001600160401b038111156101cd575f5ffd5b6101d9888289016100ff565b6040880151606089015160808a0151929750909550935090506001600160401b03811115610205575f5ffd5b610211888289016100ff565b9150509295509295909350565b600181811c9082168061023257607f821691505b60208210810361025057634e487b7160e01b5f52602260045260245ffd5b50919050565b601f82111561029d57805f5260205f20601f840160051c8101602085101561027b5750805b601f840160051c820191505b8181101561029a575f8155600101610287565b50505b505050565b81516001600160401b038111156102bb576102bb6100eb565b6102cf816102c9845461021e565b84610256565b6020601f821160018114610301575f83156102ea5750848201515b5f19600385901b1c1916600184901b17845561029a565b5f84815260208120601f198516915b828110156103305787850151825560209485019460019092019101610310565b508482101561034d57868401515f19600387901b60f8161c191681555b50505050600190811b01905550565b8082018082111561037b57634e487b7160e01b5f52601160045260245ffd5b92915050565b6114248061038e5f395ff3fe6080604052600436106100ef575f3560e01c806361c76e8d11610087578063ad60572911610057578063ad605729146102ad578063cf09e0d0146102c1578063e912fd87146102d6578063f3eb8cab146102e9575f5ffd5b806361c76e8d1461022157806383c4b7a3146102425780639e5a66ab146102735780639eecb45c14610297575f5ffd5b8063388044b3116100c2578063388044b31461018c5780635aa68ac0146101ca57806360c7dc47146101eb57806361503e4514610200575f5ffd5b806302d05d3f146100f35780630fb5a6b41461012e578063200d2ed2146101515780633197cbb614610177575b5f5ffd5b3480156100fe575f5ffd5b505f54610111906001600160a01b031681565b6040516001600160a01b0390911681526020015b60405180910390f35b348015610139575f5ffd5b5061014360035481565b604051908152602001610125565b34801561015c575f5ffd5b5060075461016a9060ff1681565b6040516101259190610f10565b348015610182575f5ffd5b5061014360055481565b348015610197575f5ffd5b506101ba6101a6366004610f24565b60086020525f908152604090205460ff1681565b6040519015158152602001610125565b3480156101d5575f5ffd5b506101de6102fd565b6040516101259190610f94565b3480156101f6575f5ffd5b5061014360025481565b34801561020b575f5ffd5b506102146103be565b6040516101259190610fd4565b34801561022c575f5ffd5b50610235610570565b604051610125919061108e565b34801561024d575f5ffd5b5061026161025c3660046110a0565b6105fc565b604051610125969594939291906110b7565b34801561027e575f5ffd5b5061028761075b565b6040516101259493929190611108565b3480156102a2575f5ffd5b506102ab610792565b005b3480156102b8575f5ffd5b50600954610143565b3480156102cc575f5ffd5b5061014360045481565b6102ab6102e4366004611176565b610b10565b3480156102f4575f5ffd5b50610235610ecf565b6009546060905f9067ffffffffffffffff81111561031d5761031d6111f8565b604051908082528060200260200182016040528015610346578160200160208202803683370190505b5090505f5b6009548110156103b857600981815481106103685761036861120c565b5f91825260209091206006909102015482516001600160a01b03909116908390839081106103985761039861120c565b6001600160a01b039092166020928302919091019091015260010161034b565b50919050565b60606009805480602002602001604051908101604052809291908181526020015f905b82821015610567575f8481526020908190206040805160c0810182526006860290920180546001600160a01b031683526001810154938301939093526002830154908201526003820154606082015260048201805491929160808401919061044890611220565b80601f016020809104026020016040519081016040528092919081815260200182805461047490611220565b80156104bf5780601f10610496576101008083540402835291602001916104bf565b820191905f5260205f20905b8154815290600101906020018083116104a257829003601f168201915b505050505081526020016005820180546104d890611220565b80601f016020809104026020016040519081016040528092919081815260200182805461050490611220565b801561054f5780601f106105265761010080835404028352916020019161054f565b820191905f5260205f20905b81548152906001019060200180831161053257829003601f168201915b505050505081525050815260200190600101906103e1565b50505050905090565b6006805461057d90611220565b80601f01602080910402602001604051908101604052809291908181526020018280546105a990611220565b80156105f45780601f106105cb576101008083540402835291602001916105f4565b820191905f5260205f20905b8154815290600101906020018083116105d757829003601f168201915b505050505081565b6009818154811061060b575f80fd5b5f918252602090912060069091020180546001820154600283015460038401546004850180546001600160a01b0390951696509294919390929061064e90611220565b80601f016020809104026020016040519081016040528092919081815260200182805461067a90611220565b80156106c55780601f1061069c576101008083540402835291602001916106c5565b820191905f5260205f20905b8154815290600101906020018083116106a857829003601f168201915b5050505050908060050180546106da90611220565b80601f016020809104026020016040519081016040528092919081815260200182805461070690611220565b80156107515780601f1061072857610100808354040283529160200191610751565b820191905f5260205f20905b81548152906001019060200180831161073457829003601f168201915b5050505050905086565b60075460095460055460ff9092169147905f90421061077b57505f61078c565b426005546107899190611266565b90505b90919293565b5f546001600160a01b031633146107f05760405162461bcd60e51b815260206004820152601a60248201527f4f6e6c792063726561746f722063616e2063616c6c207468697300000000000060448201526064015b60405180910390fd5b600554421015806108175750600160075460ff16600281111561081557610815610edc565b145b6108565760405162461bcd60e51b815260206004820152601060248201526f149bdbdb481b9bdd08195e1c1a5c995960821b60448201526064016107e7565b600260075460ff16600281111561086f5761086f610edc565b036108b55760405162461bcd60e51b8152602060048201526016602482015275149bdbdb48185b1c9958591e48199a5b985b1a5e995960521b60448201526064016107e7565b6007805460ff1916600217905560095447905f03610952575f80546040516001600160a01b039091169183156108fc02918491818181858888f19350505050158015610903573d5f5f3e3d5ffd5b50604080515f80825260208201908152818301928390527f042b0d0494eaa6045d96664864dade6db248a725a2eefa4d48c9fe7000acd2e192610947929190611279565b60405180910390a150565b5f80805b6009548110156109f6575f600982815481106109745761097461120c565b905f5260205f20906006020160020154600983815481106109975761099761120c565b905f5260205f209060060201600101546109b191906112d1565b9050838111156109ed57809350600982815481106109d1576109d161120c565b5f9182526020909120600690910201546001600160a01b031692505b50600101610956565b506001600160a01b03811615610b0b576040516001600160a01b0382169084156108fc029085905f818181858888f19350505050158015610a39573d5f5f3e3d5ffd5b506040805160018082528183019092525f916020808301908036833750506040805160018082528183019092529293505f9291506020808301908036833701905050905082825f81518110610a9057610a9061120c565b60200260200101906001600160a01b031690816001600160a01b03168152505084815f81518110610ac357610ac361120c565b6020026020010181815250507f042b0d0494eaa6045d96664864dade6db248a725a2eefa4d48c9fe7000acd2e18282604051610b00929190611279565b60405180910390a150505b505050565b5f60075460ff166002811115610b2857610b28610edc565b14610b675760405162461bcd60e51b815260206004820152600f60248201526e526f6f6d206e6f742061637469766560881b60448201526064016107e7565b6005544210610ba75760405162461bcd60e51b815260206004820152600c60248201526b149bdbdb48195e1c1a5c995960a21b60448201526064016107e7565b6002543414610bf85760405162461bcd60e51b815260206004820152601e60248201527f4d757374207374616b652074686520726571756972656420616d6f756e74000060448201526064016107e7565b335f9081526008602052604090205460ff1615610c575760405162461bcd60e51b815260206004820152601960248201527f416c7265616479207375626d697474656420776f726b6f75740000000000000060448201526064016107e7565b6064851115610ca85760405162461bcd60e51b815260206004820152601860248201527f466f726d2073636f7265206d75737420626520302d313030000000000000000060448201526064016107e7565b5f6040518060c00160405280336001600160a01b0316815260200188815260200187815260200142815260200186868080601f0160208091040260200160405190810160405280939291908181526020018383808284375f92019190915250505090825250604080516020601f8701819004810282018101909252858152918101919086908690819084018382808284375f920182905250939094525050600980546001810182559152825160069091027f6e1540171b6c0c960b71a7020d9f60077f6af931a8bbf590da0223dacf75c7af810180546001600160a01b039093166001600160a01b031990931692909217825560208401517f6e1540171b6c0c960b71a7020d9f60077f6af931a8bbf590da0223dacf75c7b082015560408401517f6e1540171b6c0c960b71a7020d9f60077f6af931a8bbf590da0223dacf75c7b182015560608401517f6e1540171b6c0c960b71a7020d9f60077f6af931a8bbf590da0223dacf75c7b2820155608084015193945084939192507f6e1540171b6c0c960b71a7020d9f60077f6af931a8bbf590da0223dacf75c7b30190610e509082611333565b5060a08201516005820190610e659082611333565b5050335f8181526008602052604090819020805460ff19166001179055519091507fd9a126af9434c12000f58250645160b2a5848e89c7fab0b21013f9cff100188c90610ebe908a908a90918252602082015260400190565b60405180910390a250505050505050565b6001805461057d90611220565b634e487b7160e01b5f52602160045260245ffd5b60038110610f0c57634e487b7160e01b5f52602160045260245ffd5b9052565b60208101610f1e8284610ef0565b92915050565b5f60208284031215610f34575f5ffd5b81356001600160a01b0381168114610f4a575f5ffd5b9392505050565b5f8151808452602084019350602083015f5b82811015610f8a5781516001600160a01b0316865260209586019590910190600101610f63565b5093949350505050565b602081525f610f4a6020830184610f51565b5f81518084528060208401602086015e5f602082860101526020601f19601f83011685010191505092915050565b5f602082016020835280845180835260408501915060408160051b8601019250602086015f5b8281101561108257603f19878603018452815160018060a01b038151168652602081015160208701526040810151604087015260608101516060870152608081015160c0608088015261105060c0880182610fa6565b905060a0820151915086810360a088015261106b8183610fa6565b965050506020938401939190910190600101610ffa565b50929695505050505050565b602081525f610f4a6020830184610fa6565b5f602082840312156110b0575f5ffd5b5035919050565b60018060a01b038716815285602082015284604082015283606082015260c060808201525f6110e960c0830185610fa6565b82810360a08401526110fb8185610fa6565b9998505050505050505050565b608081016111168287610ef0565b84602083015283604083015282606083015295945050505050565b5f5f83601f840112611141575f5ffd5b50813567ffffffffffffffff811115611158575f5ffd5b60208301915083602082850101111561116f575f5ffd5b9250929050565b5f5f5f5f5f5f6080878903121561118b575f5ffd5b8635955060208701359450604087013567ffffffffffffffff8111156111af575f5ffd5b6111bb89828a01611131565b909550935050606087013567ffffffffffffffff8111156111da575f5ffd5b6111e689828a01611131565b979a9699509497509295939492505050565b634e487b7160e01b5f52604160045260245ffd5b634e487b7160e01b5f52603260045260245ffd5b600181811c9082168061123457607f821691505b6020821081036103b857634e487b7160e01b5f52602260045260245ffd5b634e487b7160e01b5f52601160045260245ffd5b81810381811115610f1e57610f1e611252565b604081525f61128b6040830185610f51565b82810360208401528084518083526020830191506020860192505f5b818110156112c55783518352602093840193909201916001016112a7565b50909695505050505050565b8082028115828204841417610f1e57610f1e611252565b601f821115610b0b57805f5260205f20601f840160051c8101602085101561130d5750805b601f840160051c820191505b8181101561132c575f8155600101611319565b5050505050565b815167ffffffffffffffff81111561134d5761134d6111f8565b6113618161135b8454611220565b846112e8565b6020601f821160018114611393575f831561137c5750848201515b5f19600385901b1c1916600184901b17845561132c565b5f84815260208120601f198516915b828110156113c257878501518255602094850194600190920191016113a2565b50848210156113df57868401515f19600387901b60f8161c191681555b50505050600190811b0190555056fea2646970667358221220c7079facc16e9ddf6ace0fb071289474c32b4b3191f1a0aa8faf5bf955be7a8264736f6c634300081c0033a264697066735822122059fcb320cd562967c2b2d11879ed1ef901d1e5c864029ead3a02ac01610338a964736f6c634300081c0033",
  "linkReferences": {},
  "deployedLinkReferences": {},
  "immutableReferences": {},
  "inputSourceName": "project/contracts/RoomFactory.sol",
  "buildInfoId": "solc-0_8_28-c7b025d2b999b63539cedb30fa25d00f150b958a"
}